{
  "transactions": [
    {
      "hash": "0x11ea0dbf1f87918cfc87b3efab74f97cccf611fcfdb0cbabe4512a0ad860bed0",
      "transactionType": "CALL",
      "contractName": null,
      "contractAddress": "0x77917fd54484552f7d2c8bace5270c40c3fc1380",
      "function": "setForgeToken(address)",
      "arguments": [
        "0xF6c2965295CE2178f64832163a9A97CcF61A3AEE"
      ],
      "transaction": {
        "from": "0x64a4ea07b1caac927fd2ecacd4d295db38049c39",
        "to": "0x77917fd54484552f7d2c8bace5270c40c3fc1380",
        "gas": "0xfb8b",
        "value": "0x0",
        "input": "0x6ebd14a1000000000000000000000000f6c2965295ce2178f64832163a9a97ccf61a3aee",
        "nonce": "0x22",
        "chainId": "0x2105"
      },
      "additionalContracts": [],
      "isFixedGasLimit": false
    },
    {
      "hash": "0xf79a3f20af9cd0e124120a4fef4e97e243ab686528a9dd9a658003be191c0f6e",
      "transactionType": "CALL",
      "contractName": null,
      "contractAddress": "0x0d5ba0f83fc31c24b6a461f238d697d42510f507",
      "function": "setForgeToken(address)",
      "arguments": [
        "0xF6c2965295CE2178f64832163a9A97CcF61A3AEE"
      ],
      "transaction": {
        "from": "0x64a4ea07b1caac927fd2ecacd4d295db38049c39",
        "to": "0x0d5ba0f83fc31c24b6a461f238d697d42510f507",
        "gas": "0x10a18",
        "value": "0x0",
        "input": "0x6ebd14a1000000000000000000000000f6c2965295ce2178f64832163a9a97ccf61a3aee",
        "nonce": "0x23",
        "chainId": "0x2105"
      },
      "additionalContracts": [],
      "isFixedGasLimit": false
    },
    {
      "hash": "0x8e9306a04ebd4a3580fc316c5804a36906796761171782baa03cdc9a559cb6be",
      "transactionType": "CALL",
      "contractName": null,
      "contractAddress": "0x67eade0109180c16b3e6b5c65c963ad821ae505c",
      "function": "setForgeToken(address)",
      "arguments": [
        "0xF6c2965295CE2178f64832163a9A97CcF61A3AEE"
      ],
      "transaction": {
        "from": "0x64a4ea07b1caac927fd2ecacd4d295db38049c39",
        "to": "0x67eade0109180c16b3e6b5c65c963ad821ae505c",
        "gas": "0x10a18",
        "value": "0x0",
        "input": "0x6ebd14a1000000000000000000000000f6c2965295ce2178f64832163a9a97ccf61a3aee",
        "nonce": "0x24",
        "chainId": "0x2105"
      },
      "additionalContracts": [],
      "isFixedGasLimit": false
    },
    {
      "hash": "0x5d8d399472e590d563be7f72f1dccd900a46279493b458f86fe78b7346ea4da9",
      "transactionType": "CALL",
      "contractName": null,
      "contractAddress": "0x22ffdf9e88cefe2781b9ebe17eabd4388ab6cff4",
      "function": "setForgeToken(address)",
      "arguments": [
        "0xF6c2965295CE2178f64832163a9A97CcF61A3AEE"
      ],
      "transaction": {
        "from": "0x64a4ea07b1caac927fd2ecacd4d295db38049c39",
        "to": "0x22ffdf9e88cefe2781b9ebe17eabd4388ab6cff4",
        "gas": "0x10a39",
        "value": "0x0",
        "input": "0x6ebd14a1000000000000000000000000f6c2965295ce2178f64832163a9a97ccf61a3aee",
        "nonce": "0x25",
        "chainId": "0x2105"
      },
      "additionalContracts": [],
      "isFixedGasLimit": false
    },
    {
      "hash": "0x53d8d4be084f8de03e906bb2b0e6873f7245bd8c98b4e3b7176bb011c7c8511e",
      "transactionType": "CALL",
      "contractName": null,
      "contractAddress": "0x3f31447b0bf114bb315006dae520ed70fcbcd88c",
      "function": "setForgeToken(address)",
      "arguments": [
        "0xF6c2965295CE2178f64832163a9A97CcF61A3AEE"
      ],
      "transaction": {
        "from": "0x64a4ea07b1caac927fd2ecacd4d295db38049c39",
        "to": "0x3f31447b0bf114bb315006dae520ed70fcbcd88c",
        "gas": "0x110b9",
        "value": "0x0",
        "input": "0x6ebd14a1000000000000000000000000f6c2965295ce2178f64832163a9a97ccf61a3aee",
        "nonce": "0x26",
        "chainId": "0x2105"
      },
      "additionalContracts": [],
      "isFixedGasLimit": false
    },
    {
      "hash": "0xe8219890b0b297768d3e78698cbf49f5416b9687c0088835981d9dd2ab3dec8b",
      "transactionType": "CALL",
      "contractName": null,
      "contractAddress": "0x3f31447b0bf114bb315006dae520ed70fcbcd88c",
      "function": "setRecipient(address,bool)",
      "arguments": [
        "0x77917FD54484552F7d2c8bace5270C40c3fc1380",
        "true"
      ],
      "transaction": {
        "from": "0x64a4ea07b1caac927fd2ecacd4d295db38049c39",
        "to": "0x3f31447b0bf114bb315006dae520ed70fcbcd88c",
        "gas": "0x10536",
        "value": "0x0",
        "input": "0xb33480ca00000000000000000000000077917fd54484552f7d2c8bace5270c40c3fc13800000000000000000000000000000000000000000000000000000000000000001",
        "nonce": "0x27",
        "chainId": "0x2105"
      },
      "additionalContracts": [],
      "isFixedGasLimit": false
    },
    {
      "hash": "0xd8c6681cb4257b576d783ff4d7f62349660477de7a44aa0fbc297e7734404985",
      "transactionType": "CALL",
      "contractName": null,
      "contractAddress": "0x3f31447b0bf114bb315006dae520ed70fcbcd88c",
      "function": "setRecipient(address,bool)",
      "arguments": [
        "0x22FFDf9E88cEFE2781b9Ebe17eabd4388Ab6cff4",
        "true"
      ],
      "transaction": {
        "from": "0x64a4ea07b1caac927fd2ecacd4d295db38049c39",
        "to": "0x3f31447b0bf114bb315006dae520ed70fcbcd88c",
        "gas": "0x10536",
        "value": "0x0",
        "input": "0xb33480ca00000000000000000000000022ffdf9e88cefe2781b9ebe17eabd4388ab6cff40000000000000000000000000000000000000000000000000000000000000001",
        "nonce": "0x28",
        "chainId": "0x2105"
      },
      "additionalContracts": [],
      "isFixedGasLimit": false
    },
    {
      "hash": "0x76a580b9a650a6363b8992ac939b1bacd360a5af3606ad2688a77180ff5e5df5",
      "transactionType": "CALL",
      "contractName": null,
      "contractAddress": "0xf6c2965295ce2178f64832163a9a97ccf61a3aee",
      "function": "approve(address,uint256)",
      "arguments": [
        "0x77917FD54484552F7d2c8bace5270C40c3fc1380",
        "115792089237316195423570985008687907853269984665640564039457584007913129639935"
      ],
      "transaction": {
        "from": "0x64a4ea07b1caac927fd2ecacd4d295db38049c39",
        "to": "0xf6c2965295ce2178f64832163a9a97ccf61a3aee",
        "gas": "0x108e9",
        "value": "0x0",
        "input": "0x095ea7b300000000000000000000000077917fd54484552f7d2c8bace5270c40c3fc1380ffffffffffffffffffffffffffffffffffffffffffffffffffffffffffffffff",
        "nonce": "0x29",
        "chainId": "0x2105"
      },
      "additionalContracts": [],
      "isFixedGasLimit": false
    },
    {
      "hash": "0x4b6be7c0f2eadb2374613ef4a1e2e8b1d03a71b8b90d29d42d5b82a2bfc9ba3e",
      "transactionType": "CALL",
      "contractName": null,
      "contractAddress": "0xf6c2965295ce2178f64832163a9a97ccf61a3aee",
      "function": "approve(address,uint256)",
      "arguments": [
        "0x22FFDf9E88cEFE2781b9Ebe17eabd4388Ab6cff4",
        "115792089237316195423570985008687907853269984665640564039457584007913129639935"
      ],
      "transaction": {
        "from": "0x64a4ea07b1caac927fd2ecacd4d295db38049c39",
        "to": "0xf6c2965295ce2178f64832163a9a97ccf61a3aee",
        "gas": "0x108e9",
        "value": "0x0",
        "input": "0x095ea7b300000000000000000000000022ffdf9e88cefe2781b9ebe17eabd4388ab6cff4ffffffffffffffffffffffffffffffffffffffffffffffffffffffffffffffff",
        "nonce": "0x2a",
        "chainId": "0x2105"
      },
      "additionalContracts": [],
      "isFixedGasLimit": false
    },
    {
      "hash": "0xc88300e9f51d77fc340d7681d17be0418d4aba21b21e9153efcf4ed2dce47e97",
      "transactionType": "CALL",
      "contractName": null,
      "contractAddress": "0xf6c2965295ce2178f64832163a9a97ccf61a3aee",
      "function": "approve(address,uint256)",
      "arguments": [
        "0x0d5ba0f83fC31c24b6a461F238d697D42510f507",
        "115792089237316195423570985008687907853269984665640564039457584007913129639935"
      ],
      "transaction": {
        "from": "0x64a4ea07b1caac927fd2ecacd4d295db38049c39",
        "to": "0xf6c2965295ce2178f64832163a9a97ccf61a3aee",
        "gas": "0x108e9",
        "value": "0x0",
        "input": "0x095ea7b30000000000000000000000000d5ba0f83fc31c24b6a461f238d697d42510f507ffffffffffffffffffffffffffffffffffffffffffffffffffffffffffffffff",
        "nonce": "0x2b",
        "chainId": "0x2105"
      },
      "additionalContracts": [],
      "isFixedGasLimit": false
    }
  ],
  "receipts": [
    {
      "status": "0x1",
      "cumulativeGasUsed": "0x2092c6b",
      "logs": [],
      "logsBloom": "0x00000000000000000000000000000000000000000000000000000000000000000000000000000000000000000000000000000000000000000000000000000000000000000000000000000000000000000000000000000000000000000000000000000000000000000000000000000000000000000000000000000000000000000000000000000000000000000000000000000000000000000000000000000000000000000000000000000000000000000000000000000000000000000000000000000000000000000000000000000000000000000000000000000000000000000000000000000000000000000000000000000000000000000000000000000000",
      "type": "0x2",
      "transactionHash": "0x11ea0dbf1f87918cfc87b3efab74f97cccf611fcfdb0cbabe4512a0ad860bed0",
      "transactionIndex": "0xa2",
      "blockHash": "0x0000000000000000000000000000000000000000000000000000000000000000",
      "blockNumber": "0x299b4dd",
      "gasUsed": "0xb61e",
      "effectiveGasPrice": "0x4c4b4a",
      "blobGasUsed": "0x364c",
      "from": "0x64a4ea07b1caac927fd2ecacd4d295db38049c39",
      "to": "0x77917fd54484552f7d2c8bace5270c40c3fc1380",
      "contractAddress": null,
      "daFootprintGasScalar": "0x8b",
      "l1BaseFeeScalar": "0x8dd",
      "l1BlobBaseFee": "0x39a57f",
      "l1BlobBaseFeeScalar": "0x101c12",
      "l1Fee": "0x2520b0a2",
      "l1GasPrice": "0x3ada86c",
      "l1GasUsed": "0x640"
    },
    {
      "status": "0x1",
      "cumulativeGasUsed": "0x209e25d",
      "logs": [],
      "logsBloom": "0x00000000000000000000000000000000000000000000000000000000000000000000000000000000000000000000000000000000000000000000000000000000000000000000000000000000000000000000000000000000000000000000000000000000000000000000000000000000000000000000000000000000000000000000000000000000000000000000000000000000000000000000000000000000000000000000000000000000000000000000000000000000000000000000000000000000000000000000000000000000000000000000000000000000000000000000000000000000000000000000000000000000000000000000000000000000",
      "type": "0x2",
      "transactionHash": "0xf79a3f20af9cd0e124120a4fef4e97e243ab686528a9dd9a658003be191c0f6e",
      "transactionIndex": "0xa3",
      "blockHash": "0x0000000000000000000000000000000000000000000000000000000000000000",
      "blockNumber": "0x299b4dd",
      "gasUsed": "0xb5f2",
      "effectiveGasPrice": "0x4c4b4a",
      "blobGasUsed": "0x364c",
      "from": "0x64a4ea07b1caac927fd2ecacd4d295db38049c39",
      "to": "0x0d5ba0f83fc31c24b6a461f238d697d42510f507",
      "contractAddress": null,
      "daFootprintGasScalar": "0x8b",
      "l1BaseFeeScalar": "0x8dd",
      "l1BlobBaseFee": "0x39a57f",
      "l1BlobBaseFeeScalar": "0x101c12",
      "l1Fee": "0x2520b0a2",
      "l1GasPrice": "0x3ada86c",
      "l1GasUsed": "0x640"
    },
    {
      "status": "0x1",
      "cumulativeGasUsed": "0x20a984f",
      "logs": [],
      "logsBloom": "0x00000000000000000000000000000000000000000000000000000000000000000000000000000000000000000000000000000000000000000000000000000000000000000000000000000000000000000000000000000000000000000000000000000000000000000000000000000000000000000000000000000000000000000000000000000000000000000000000000000000000000000000000000000000000000000000000000000000000000000000000000000000000000000000000000000000000000000000000000000000000000000000000000000000000000000000000000000000000000000000000000000000000000000000000000000000",
      "type": "0x2",
      "transactionHash": "0x5d8d399472e590d563be7f72f1dccd900a46279493b458f86fe78b7346ea4da9",
      "transactionIndex": "0xa4",
      "blockHash": "0x0000000000000000000000000000000000000000000000000000000000000000",
      "blockNumber": "0x299b4dd",
      "gasUsed": "0xb5f2",
      "effectiveGasPrice": "0x4c4b4a",
      "blobGasUsed": "0x364c",
      "from": "0x64a4ea07b1caac927fd2ecacd4d295db38049c39",
      "to": "0x67eade0109180c16b3e6b5c65c963ad821ae505c",
      "contractAddress": null,
      "daFootprintGasScalar": "0x8b",
      "l1BaseFeeScalar": "0x8dd",
      "l1BlobBaseFee": "0x39a57f",
      "l1BlobBaseFeeScalar": "0x101c12",
      "l1Fee": "0x2520b0a2",
      "l1GasPrice": "0x3ada86c",
      "l1GasUsed": "0x640"
    },
    {
      "status": "0x1",
      "cumulativeGasUsed": "0x20b4e58",
      "logs": [],
      "logsBloom": "0x00000000000000000000000000000000000000000000000000000000000000000000000000000000000000000000000000000000000000000000000000000000000000000000000000000000000000000000000000000000000000000000000000000000000000000000000000000000000000000000000000000000000000000000000000000000000000000000000000000000000000000000000000000000000000000000000000000000000000000000000000000000000000000000000000000000000000000000000000000000000000000000000000000000000000000000000000000000000000000000000000000000000000000000000000000000",
      "type": "0x2",
      "transactionHash": "0x53d8d4be084f8de03e906bb2b0e6873f7245bd8c98b4e3b7176bb011c7c8511e",
      "transactionIndex": "0xa5",
      "blockHash": "0x0000000000000000000000000000000000000000000000000000000000000000",
      "blockNumber": "0x299b4dd",
      "gasUsed": "0xb609",
      "effectiveGasPrice": "0x4c4b4a",
      "blobGasUsed": "0x364c",
      "from": "0x64a4ea07b1caac927fd2ecacd4d295db38049c39",
      "to": "0x22ffdf9e88cefe2781b9ebe17eabd4388ab6cff4",
      "contractAddress": null,
      "daFootprintGasScalar": "0x8b",
      "l1BaseFeeScalar": "0x8dd",
      "l1BlobBaseFee": "0x39a57f",
      "l1BlobBaseFeeScalar": "0x101c12",
      "l1Fee": "0x2520b0a2",
      "l1GasPrice": "0x3ada86c",
      "l1GasUsed": "0x640"
    },
    {
      "status": "0x1",
      "cumulativeGasUsed": "0x20c08d3",
      "logs": [
        {
          "address": "0x3f31447b0bf114bb315006dae520ed70fcbcd88c",
          "topics": [
            "0xa07c91c183e42229e705a9795a1c06d76528b673788b849597364528c96eefb7",
            "0x000000000000000000000000f6c2965295ce2178f64832163a9a97ccf61a3aee"
          ],
          "data": "0x",
          "blockHash": "0x0000000000000000000000000000000000000000000000000000000000000000",
          "blockNumber": "0x299b4dd",
          "blockTimestamp": "0x69bdc69d",
          "transactionHash": "0x8e9306a04ebd4a3580fc316c5804a36906796761171782baa03cdc9a559cb6be",
          "transactionIndex": "0xa6",
          "logIndex": "0x289",
          "removed": false
        }
      ],
      "logsBloom": "0x00000000000000000000040000000000000000000000000000000000000000000000000000000000000000000000000000000000000000000000010000000000000000000000000000000000000000000000000000000000000000000080000000000000000000000000000000000000000000000000000000000200000010000000000000000000000000000000000000000000000000000000000000080000000000000000000000000000000000000000000000000000000000000000000000000000000000000000000000000000000000000010000000000800000000000000000000000000000000000000000000000000000000000000000000002000",
      "type": "0x2",
      "transactionHash": "0x8e9306a04ebd4a3580fc316c5804a36906796761171782baa03cdc9a559cb6be",
      "transactionIndex": "0xa6",
      "blockHash": "0x0000000000000000000000000000000000000000000000000000000000000000",
      "blockNumber": "0x299b4dd",
      "gasUsed": "0xba7b",
      "effectiveGasPrice": "0x4c4b4a",
      "blobGasUsed": "0x364c",
      "from": "0x64a4ea07b1caac927fd2ecacd4d295db38049c39",
      "to": "0x3f31447b0bf114bb315006dae520ed70fcbcd88c",
      "contractAddress": null,
      "daFootprintGasScalar": "0x8b",
      "l1BaseFeeScalar": "0x8dd",
      "l1BlobBaseFee": "0x39a57f",
      "l1BlobBaseFeeScalar": "0x101c12",
      "l1Fee": "0x2520b0a2",
      "l1GasPrice": "0x3ada86c",
      "l1GasUsed": "0x640"
    },
    {
      "status": "0x1",
      "cumulativeGasUsed": "0x262f99a",
      "logs": [
        {
          "address": "0x3f31447b0bf114bb315006dae520ed70fcbcd88c",
          "topics": [
            "0x03885198d5d4cb856625d22550e7a6aa0c6210a256a4540267731dec336e66f2",
            "0x00000000000000000000000077917fd54484552f7d2c8bace5270c40c3fc1380"
          ],
          "data": "0x0000000000000000000000000000000000000000000000000000000000000001",
          "blockHash": "0x1fe10f8be8295dcc9a27836f966a4881b8f58f2515ef55ad84aa87ba10d70de5",
          "blockNumber": "0x299b4dd",
          "blockTimestamp": "0x69bdc69d",
          "transactionHash": "0xe8219890b0b297768d3e78698cbf49f5416b9687c0088835981d9dd2ab3dec8b",
          "transactionIndex": "0xbb",
          "logIndex": "0x2a3",
          "removed": false
        }
      ],
      "logsBloom": "0x00000000000000000000040000000000000000000000000000000000000000000000000000000000000000000000000000000000000000000000010000000000000000000000001000000000000000000000000000000080000000000080000000000000400000000000000000000000000000000000000000000000000000000000000000000000000000000000000000000000000000004000000000000000000000000040000000000000000000000000000000000000000000000000000000400000000000000000000000000000000000000000000000000000000000000000000000000000000000000000000000000000000000000000000000000000",
      "type": "0x2",
      "transactionHash": "0xe8219890b0b297768d3e78698cbf49f5416b9687c0088835981d9dd2ab3dec8b",
      "transactionIndex": "0xbb",
      "blockHash": "0x1fe10f8be8295dcc9a27836f966a4881b8f58f2515ef55ad84aa87ba10d70de5",
      "blockNumber": "0x299b4dd",
      "gasUsed": "0xbd1e",
      "effectiveGasPrice": "0x4c4b4a",
      "blobGasUsed": "0x364c",
      "from": "0x64a4ea07b1caac927fd2ecacd4d295db38049c39",
      "to": "0x3f31447b0bf114bb315006dae520ed70fcbcd88c",
      "contractAddress": null,
      "daFootprintGasScalar": "0x8b",
      "l1BaseFeeScalar": "0x8dd",
      "l1BlobBaseFee": "0x39a57f",
      "l1BlobBaseFeeScalar": "0x101c12",
      "l1Fee": "0x2520b0a2",
      "l1GasPrice": "0x3ada86c",
      "l1GasUsed": "0x640"
    },
    {
      "status": "0x1",
      "cumulativeGasUsed": "0x263b6b8",
      "logs": [
        {
          "address": "0x3f31447b0bf114bb315006dae520ed70fcbcd88c",
          "topics": [
            "0x03885198d5d4cb856625d22550e7a6aa0c6210a256a4540267731dec336e66f2",
            "0x00000000000000000000000022ffdf9e88cefe2781b9ebe17eabd4388ab6cff4"
          ],
          "data": "0x0000000000000000000000000000000000000000000000000000000000000001",
          "blockHash": "0x1fe10f8be8295dcc9a27836f966a4881b8f58f2515ef55ad84aa87ba10d70de5",
          "blockNumber": "0x299b4dd",
          "blockTimestamp": "0x69bdc69d",
          "transactionHash": "0xc88300e9f51d77fc340d7681d17be0418d4aba21b21e9153efcf4ed2dce47e97",
          "transactionIndex": "0xbc",
          "logIndex": "0x2a4",
          "removed": false
        }
      ],
      "logsBloom": "0x00000000000000000000040000000000000000000000000000000000000000000000000000000000000000000000000000000000000000000800010000000000000000000000000000000000000080000000000000000000000000000080000000000000400000000000000000000000000000000000000000000000000000000000000000000000000000000000000000000000000000004000000000000000000000000000000000000000000000000000000000000000000000000000000000400000000000000000000000000000000000000000000000040000000000000000000000000000000000000000000000000000000000000000000000000000",
      "type": "0x2",
      "transactionHash": "0xc88300e9f51d77fc340d7681d17be0418d4aba21b21e9153efcf4ed2dce47e97",
      "transactionIndex": "0xbc",
      "blockHash": "0x1fe10f8be8295dcc9a27836f966a4881b8f58f2515ef55ad84aa87ba10d70de5",
      "blockNumber": "0x299b4dd",
      "gasUsed": "0xbd1e",
      "effectiveGasPrice": "0x4c4b4a",
      "blobGasUsed": "0x364c",
      "from": "0x64a4ea07b1caac927fd2ecacd4d295db38049c39",
      "to": "0x3f31447b0bf114bb315006dae520ed70fcbcd88c",
      "contractAddress": null,
      "daFootprintGasScalar": "0x8b",
      "l1BaseFeeScalar": "0x8dd",
      "l1BlobBaseFee": "0x39a57f",
      "l1BlobBaseFeeScalar": "0x101c12",
      "l1Fee": "0x2520b0a2",
      "l1GasPrice": "0x3ada86c",
      "l1GasUsed": "0x640"
    },
    {
      "status": "0x1",
      "cumulativeGasUsed": "0x2646bdb",
      "logs": [
        {
          "address": "0xf6c2965295ce2178f64832163a9a97ccf61a3aee",
          "topics": [
            "0x8c5be1e5ebec7d5bd14f71427d1e84f3dd0314c0f7b2291e5b200ac8c7c3b925",
            "0x00000000000000000000000064a4ea07b1caac927fd2ecacd4d295db38049c39",
            "0x00000000000000000000000077917fd54484552f7d2c8bace5270c40c3fc1380"
          ],
          "data": "0xffffffffffffffffffffffffffffffffffffffffffffffffffffffffffffffff",
          "blockHash": "0x1fe10f8be8295dcc9a27836f966a4881b8f58f2515ef55ad84aa87ba10d70de5",
          "blockNumber": "0x299b4dd",
          "blockTimestamp": "0x69bdc69d",
          "transactionHash": "0x4b6be7c0f2eadb2374613ef4a1e2e8b1d03a71b8b90d29d42d5b82a2bfc9ba3e",
          "transactionIndex": "0xbd",
          "logIndex": "0x2a5",
          "removed": false
        }
      ],
      "logsBloom": "0x00000000008000000000000000000000010000000000000000000000000000000000000000000000000080000000000400000000000000000000000000200000000000000000001000000000000000000000000000000080000000000000000000000000000000000000000000000000000000000000000000020000000000000000000000000000000000000000000000000000000000000000000000000000020000000040000000000000000000000000000000000000000000000000000000000000000000000000000000000000000000000000000000000000000000000010000000000000000000000000020000000000000000000000000000000000",
      "type": "0x2",
      "transactionHash": "0x4b6be7c0f2eadb2374613ef4a1e2e8b1d03a71b8b90d29d42d5b82a2bfc9ba3e",
      "transactionIndex": "0xbd",
      "blockHash": "0x1fe10f8be8295dcc9a27836f966a4881b8f58f2515ef55ad84aa87ba10d70de5",
      "blockNumber": "0x299b4dd",
      "gasUsed": "0xb523",
      "effectiveGasPrice": "0x4c4b4a",
      "blobGasUsed": "0x364c",
      "from": "0x64a4ea07b1caac927fd2ecacd4d295db38049c39",
      "to": "0xf6c2965295ce2178f64832163a9a97ccf61a3aee",
      "contractAddress": null,
      "daFootprintGasScalar": "0x8b",
      "l1BaseFeeScalar": "0x8dd",
      "l1BlobBaseFee": "0x39a57f",
      "l1BlobBaseFeeScalar": "0x101c12",
      "l1Fee": "0x2520b0a2",
      "l1GasPrice": "0x3ada86c",
      "l1GasUsed": "0x640"
    },
    {
      "status": "0x1",
      "cumulativeGasUsed": "0x26520fe",
      "logs": [
        {
          "address": "0xf6c2965295ce2178f64832163a9a97ccf61a3aee",
          "topics": [
            "0x8c5be1e5ebec7d5bd14f71427d1e84f3dd0314c0f7b2291e5b200ac8c7c3b925",
            "0x00000000000000000000000064a4ea07b1caac927fd2ecacd4d295db38049c39",
            "0x00000000000000000000000022ffdf9e88cefe2781b9ebe17eabd4388ab6cff4"
          ],
          "data": "0xffffffffffffffffffffffffffffffffffffffffffffffffffffffffffffffff",
          "blockHash": "0x1fe10f8be8295dcc9a27836f966a4881b8f58f2515ef55ad84aa87ba10d70de5",
          "blockNumber": "0x299b4dd",
          "blockTimestamp": "0x69bdc69d",
          "transactionHash": "0xd8c6681cb4257b576d783ff4d7f62349660477de7a44aa0fbc297e7734404985",
          "transactionIndex": "0xbe",
          "logIndex": "0x2a6",
          "removed": false
        }
      ],
      "logsBloom": "0x00000000008000000000000000000000010000000000000000000000000000000000000000000000000080000000000400000000000000000800000000200000000000000000000000000000000080000000000000000000000000000000000000000000000000000000000000000000000000000000000000020000000000000000000000000000000000000000000000000000000000000000000000000000020000000000000000000000000000000000000000000000000000000000000000000000000000000000000000000000000000000000000000040000000000000010000000000000000000000000020000000000000000000000000000000000",
      "type": "0x2",
      "transactionHash": "0xd8c6681cb4257b576d783ff4d7f62349660477de7a44aa0fbc297e7734404985",
      "transactionIndex": "0xbe",
      "blockHash": "0x1fe10f8be8295dcc9a27836f966a4881b8f58f2515ef55ad84aa87ba10d70de5",
      "blockNumber": "0x299b4dd",
      "gasUsed": "0xb523",
      "effectiveGasPrice": "0x4c4b4a",
      "blobGasUsed": "0x364c",
      "from": "0x64a4ea07b1caac927fd2ecacd4d295db38049c39",
      "to": "0xf6c2965295ce2178f64832163a9a97ccf61a3aee",
      "contractAddress": null,
      "daFootprintGasScalar": "0x8b",
      "l1BaseFeeScalar": "0x8dd",
      "l1BlobBaseFee": "0x39a57f",
      "l1BlobBaseFeeScalar": "0x101c12",
      "l1Fee": "0x2520b0a2",
      "l1GasPrice": "0x3ada86c",
      "l1GasUsed": "0x640"
    },
    {
      "status": "0x1",
      "cumulativeGasUsed": "0x265d621",
      "logs": [
        {
          "address": "0xf6c2965295ce2178f64832163a9a97ccf61a3aee",
          "topics": [
            "0x8c5be1e5ebec7d5bd14f71427d1e84f3dd0314c0f7b2291e5b200ac8c7c3b925",
            "0x00000000000000000000000064a4ea07b1caac927fd2ecacd4d295db38049c39",
            "0x0000000000000000000000000d5ba0f83fc31c24b6a461f238d697d42510f507"
          ],
          "data": "0xffffffffffffffffffffffffffffffffffffffffffffffffffffffffffffffff",
          "blockHash": "0x1fe10f8be8295dcc9a27836f966a4881b8f58f2515ef55ad84aa87ba10d70de5",
          "blockNumber": "0x299b4dd",
          "blockTimestamp": "0x69bdc69d",
          "transactionHash": "0x76a580b9a650a6363b8992ac939b1bacd360a5af3606ad2688a77180ff5e5df5",
          "transactionIndex": "0xbf",
          "logIndex": "0x2a7",
          "removed": false
        }
      ],
      "logsBloom": "0x00000000008000000000000000040000010000000000000000000000000000000000000000000000000080000000000400000000000000000000000000200000000000000000000000000000000000000000000000000000000000000000000000000000000000000000000000000000000000000000000000020000000000000000000000000100000000000000000000000000000000000000000000000000020000000000000000000000000000000000002000000000000000000000000000000000000000000000000000000000000000000000000000000000000000000010000000000000000000000000020000000000000000000000000000000000",
      "type": "0x2",
      "transactionHash": "0x76a580b9a650a6363b8992ac939b1bacd360a5af3606ad2688a77180ff5e5df5",
      "transactionIndex": "0xbf",
      "blockHash": "0x1fe10f8be8295dcc9a27836f966a4881b8f58f2515ef55ad84aa87ba10d70de5",
      "blockNumber": "0x299b4dd",
      "gasUsed": "0xb523",
      "effectiveGasPrice": "0x4c4b4a",
      "blobGasUsed": "0x364c",
      "from": "0x64a4ea07b1caac927fd2ecacd4d295db38049c39",
      "to": "0xf6c2965295ce2178f64832163a9a97ccf61a3aee",
      "contractAddress": null,
      "daFootprintGasScalar": "0x8b",
      "l1BaseFeeScalar": "0x8dd",
      "l1BlobBaseFee": "0x39a57f",
      "l1BlobBaseFeeScalar": "0x101c12",
      "l1Fee": "0x2520b0a2",
      "l1GasPrice": "0x3ada86c",
      "l1GasUsed": "0x640"
    }
  ],
  "libraries": [],
  "pending": [],
  "returns": {},
  "timestamp": 1774044826382,
  "chain": 8453,
  "commit": "79d8b6d"
}